{
  "abi": [
    {
      "constant": true,
      "inputs": [
        {
          "internalType": "bytes32",
          "name": "randomness",
          "type": "bytes32"
        }
      ],
      "name": "getPlayerRolls",
      "outputs": [
        {
          "internalType": "uint8",
          "name": "playerFirstRollOne",
          "type": "uint8"
        },
        {
          "internalType": "uint8",
          "name": "playerFirstRollTwo",
          "type": "uint8"
        },
        {
          "internalType": "uint8",
          "name": "playerSecondRollOne",
          "type": "uint8"
        },
        {
          "internalType": "uint8",
          "name": "playerSecondRollTwo",
          "type": "uint8"
        }
      ],
      "payable": false,
      "stateMutability": "pure",
      "type": "function"
    },
    {
      "constant": true,
      "inputs": [
        {
          "internalType": "bytes",
          "name": "encodedState",
          "type": "bytes"
        },
        {
          "internalType": "bytes",
          "name": "encodedAction",
          "type": "bytes"
        }
      ],
      "name": "applyAction",
      "outputs": [
        {
          "internalType": "bytes",
          "name": "",
          "type": "bytes"
        }
      ],
      "payable": false,
      "stateMutability": "pure",
      "type": "function"
    },
    {
      "constant": true,
      "inputs": [
        {
          "internalType": "bytes",
          "name": "encodedState",
          "type": "bytes"
        }
      ],
      "name": "isStateTerminal",
      "outputs": [
        {
          "internalType": "bool",
          "name": "",
          "type": "bool"
        }
      ],
      "payable": false,
      "stateMutability": "pure",
      "type": "function"
    },
    {
      "constant": true,
      "inputs": [
        {
          "internalType": "bytes",
          "name": "encodedState",
          "type": "bytes"
        }
      ],
      "name": "computeOutcome",
      "outputs": [
        {
          "internalType": "bytes",
          "name": "",
          "type": "bytes"
        }
      ],
      "payable": false,
      "stateMutability": "pure",
      "type": "function"
    },
    {
      "constant": true,
      "inputs": [
        {
          "internalType": "bytes32",
          "name": "randomness",
          "type": "bytes32"
        }
      ],
      "name": "highRoller",
      "outputs": [
        {
          "internalType": "uint8",
          "name": "playerFirstTotal",
          "type": "uint8"
        },
        {
          "internalType": "uint8",
          "name": "playerSecondTotal",
          "type": "uint8"
        }
      ],
      "payable": false,
      "stateMutability": "pure",
      "type": "function"
    },
    {
      "constant": true,
      "inputs": [
        {
          "internalType": "bytes",
          "name": "encodedState",
          "type": "bytes"
        },
        {
          "internalType": "address[]",
          "name": "participants",
          "type": "address[]"
        }
      ],
      "name": "getTurnTaker",
      "outputs": [
        {
          "internalType": "address",
          "name": "",
          "type": "address"
        }
      ],
      "payable": false,
      "stateMutability": "pure",
      "type": "function"
    }
  ],
  "evm": {
    "bytecode": {
      "linkReferences": {},
      "object": "608060405234801561001057600080fd5b50611502806100206000396000f3fe608060405234801561001057600080fd5b50600436106100625760003560e01c80634fabae781461006757806351c2e5411461009a57806359e537c1146100ca57806367c40cc4146100fa57806373b190d81461012a578063ce963afd1461015b575b600080fd5b610081600480360361007c9190810190610baf565b61018b565b60405161009194939291906112a0565b60405180910390f35b6100b460048036036100af9190810190610c92565b6101df565b6040516100c1919061115f565b60405180910390f35b6100e460048036036100df9190810190610bd8565b6105c2565b6040516100f19190611144565b60405180910390f35b610114600480360361010f9190810190610bd8565b610628565b604051610121919061115f565b60405180910390f35b610144600480360361013f9190810190610baf565b6107ad565b604051610152929190611277565b60405180910390f35b61017560048036036101709190810190610c1d565b6107da565b6040516101829190611129565b60405180910390f35b6000806000806000806000806101a08961082f565b93509350935093506101b184610862565b97506101bc83610862565b96506101c782610862565b95506101d281610862565b9450505050509193509193565b60606101e9610917565b85856101f89190810190610d30565b905061020261095e565b84846102119190810190610d07565b905061021b610917565b8290506000600281111561022b57fe5b8260000151600281111561023b57fe5b14156102d4576000600481111561024e57fe5b8360000151600481111561025e57fe5b1461029e576040517f08c379a0000000000000000000000000000000000000000000000000000000008152600401610295906111dc565b60405180910390fd5b6001816000019060048111156102b057fe5b908160048111156102bd57fe5b815250508160400151816040018181525050610584565b600160028111156102e157fe5b826000015160028111156102f157fe5b14156103d2576001600481111561030457fe5b8360000151600481111561031457fe5b14610354576040517f08c379a000000000000000000000000000000000000000000000000000000000815260040161034b9061121c565b60405180910390fd5b60008260200151141561039c576040517f08c379a00000000000000000000000000000000000000000000000000000000081526004016103939061123c565b60405180910390fd5b6002816000019060048111156103ae57fe5b908160048111156103bb57fe5b815250508160200151816080018181525050610583565b6002808111156103de57fe5b826000015160028111156103ee57fe5b1415610547576002600481111561040157fe5b8360000151600481111561041157fe5b14610451576040517f08c379a0000000000000000000000000000000000000000000000000000000008152600401610448906111fc565b60405180910390fd5b60008260400151836020015160405160200161046e9291906110e2565b604051602081830303815290604052805190602001209050836040015181146104cc576040517f08c379a00000000000000000000000000000000000000000000000000000000081526004016104c3906111bc565b60405180910390fd5b600083602001511415610501576004826000019060048111156104eb57fe5b908160048111156104f857fe5b81525050610541565b60038260000190600481111561051357fe5b9081600481111561052057fe5b81525050826020015182606001818152505082604001518260200181815250505b50610582565b6040517f08c379a00000000000000000000000000000000000000000000000000000000081526004016105799061119c565b60405180910390fd5b5b5b60018160a0018181510191508181525050806040516020016105a6919061125c565b6040516020818303038152906040529350505050949350505050565b60006105cc610917565b83836105db9190810190610d30565b9050600360048111156105ea57fe5b816000015160048111156105fa57fe5b148061061f575060048081111561060d57fe5b8160000151600481111561061d57fe5b145b91505092915050565b6060610632610917565b83836106419190810190610d30565b90506000600481111561065057fe5b8160000151600481111561066057fe5b141561068f5760016040516020016106789190611181565b6040516020818303038152906040529150506107a7565b6001600481111561069c57fe5b816000015160048111156106ac57fe5b14156106db5760006040516020016106c49190611181565b6040516020818303038152906040529150506107a7565b600260048111156106e857fe5b816000015160048111156106f857fe5b14156107275760016040516020016107109190611181565b6040516020818303038152906040529150506107a7565b60048081111561073357fe5b8160000151600481111561074357fe5b141561077257600160405160200161075b9190611181565b6040516020818303038152906040529150506107a7565b61078481606001518260800151610883565b6040516020016107949190611181565b6040516020818303038152906040529150505b92915050565b6000806000806000806107bf8761018b565b93509350935093508284019550808201945050505050915091565b60006107e4610917565b85856107f39190810190610d30565b9050838360028360a001518161080557fe5b0681811061080f57fe5b90506020020160206108249190810190610b86565b915050949350505050565b60008060008060405185600082015260008101519450600881015193506010810151925060188101519150509193509193565b600060068260c01c67ffffffffffffffff168161087b57fe5b069050919050565b60008061089084846108e4565b905060008061089e836107ad565b915091508060ff168260ff1611156108bc57600093505050506108de565b8060ff168260ff1610156108d657600193505050506108de565b600293505050505b92915050565b60008183026040516020016108f9919061110e565b60405160208183030381529060405280519060200120905092915050565b6040518060c001604052806000600481111561092f57fe5b815260200160008019168152602001600080191681526020016000815260200160008152602001600081525090565b60405180606001604052806000600281111561097657fe5b815260200160008152602001600080191681525090565b60008135905061099c8161145a565b92915050565b60008083601f8401126109b457600080fd5b8235905067ffffffffffffffff8111156109cd57600080fd5b6020830191508360208202830111156109e557600080fd5b9250929050565b6000813590506109fb81611471565b92915050565b60008083601f840112610a1357600080fd5b8235905067ffffffffffffffff811115610a2c57600080fd5b602083019150836001820283011115610a4457600080fd5b9250929050565b600081359050610a5a81611488565b92915050565b600081359050610a6f81611498565b92915050565b600060608284031215610a8757600080fd5b610a9160606112e5565b90506000610aa184828501610a4b565b6000830152506020610ab584828501610b71565b6020830152506040610ac9848285016109ec565b60408301525092915050565b600060c08284031215610ae757600080fd5b610af160c06112e5565b90506000610b0184828501610a60565b6000830152506020610b15848285016109ec565b6020830152506040610b29848285016109ec565b6040830152506060610b3d84828501610b71565b6060830152506080610b5184828501610b71565b60808301525060a0610b6584828501610b71565b60a08301525092915050565b600081359050610b80816114a8565b92915050565b600060208284031215610b9857600080fd5b6000610ba68482850161098d565b91505092915050565b600060208284031215610bc157600080fd5b6000610bcf848285016109ec565b91505092915050565b60008060208385031215610beb57600080fd5b600083013567ffffffffffffffff811115610c0557600080fd5b610c1185828601610a01565b92509250509250929050565b60008060008060408587031215610c3357600080fd5b600085013567ffffffffffffffff811115610c4d57600080fd5b610c5987828801610a01565b9450945050602085013567ffffffffffffffff811115610c7857600080fd5b610c84878288016109a2565b925092505092959194509250565b60008060008060408587031215610ca857600080fd5b600085013567ffffffffffffffff811115610cc257600080fd5b610cce87828801610a01565b9450945050602085013567ffffffffffffffff811115610ced57600080fd5b610cf987828801610a01565b925092505092959194509250565b600060608284031215610d1957600080fd5b6000610d2784828501610a75565b91505092915050565b600060c08284031215610d4257600080fd5b6000610d5084828501610ad5565b91505092915050565b610d628161133f565b82525050565b610d7181611351565b82525050565b610d808161135d565b82525050565b610d97610d928261135d565b61141b565b82525050565b6000610da882611312565b610db2818561131d565b9350610dc28185602086016113e8565b610dcb8161142f565b840191505092915050565b610ddf816113c4565b82525050565b610dee816113d6565b82525050565b6000610e0160138361132e565b91507f496e76616c696420616374696f6e2074797065000000000000000000000000006000830152602082019050919050565b6000610e4160408361132e565b91507f4e756d6265722070726573656e74656420627920503120776173206e6f74207760008301527f686174207761732070726576696f75736c7920636f6d6d697474656420746f2e6020830152604082019050919050565b6000610ea760368361132e565b91507f4d757374206170706c7920434f4d4d49545f544f5f4841534820746f2057414960008301527f54494e475f464f525f50315f434f4d4d49544d454e54000000000000000000006020830152604082019050919050565b6000610f0d602c8361132e565b91507f4d757374206170706c792052455645414c5f4e554d20746f2050325f434f4d4d60008301527f49545445445f544f5f4e554d00000000000000000000000000000000000000006020830152604082019050919050565b6000610f7360308361132e565b91507f4d757374206170706c7920434f4d4d49545f544f5f4e554d20746f2050315f4360008301527f4f4d4d49545445445f544f5f48415348000000000000000000000000000000006020830152604082019050919050565b6000610fd960308361132e565b91507f497420697320636f6e7369646572656420696e76616c696420746f207573652060008301527f3020617320746865206e756d6265722e000000000000000000000000000000006020830152604082019050919050565b60c0820160008201516110486000850182610dd6565b50602082015161105b6020850182610d77565b50604082015161106e6040850182610d77565b50606082015161108160608501826110ad565b50608082015161109460808501826110ad565b5060a08201516110a760a08501826110ad565b50505050565b6110b6816113ad565b82525050565b6110cd6110c8826113ad565b611425565b82525050565b6110dc816113b7565b82525050565b60006110ee8285610d86565b6020820191506110fe82846110bc565b6020820191508190509392505050565b600061111a82846110bc565b60208201915081905092915050565b600060208201905061113e6000830184610d59565b92915050565b60006020820190506111596000830184610d68565b92915050565b600060208201905081810360008301526111798184610d9d565b905092915050565b60006020820190506111966000830184610de5565b92915050565b600060208201905081810360008301526111b581610df4565b9050919050565b600060208201905081810360008301526111d581610e34565b9050919050565b600060208201905081810360008301526111f581610e9a565b9050919050565b6000602082019050818103600083015261121581610f00565b9050919050565b6000602082019050818103600083015261123581610f66565b9050919050565b6000602082019050818103600083015261125581610fcc565b9050919050565b600060c0820190506112716000830184611032565b92915050565b600060408201905061128c60008301856110d3565b61129960208301846110d3565b9392505050565b60006080820190506112b560008301876110d3565b6112c260208301866110d3565b6112cf60408301856110d3565b6112dc60608301846110d3565b95945050505050565b6000604051905081810181811067ffffffffffffffff8211171561130857600080fd5b8060405250919050565b600081519050919050565b600082825260208201905092915050565b600082825260208201905092915050565b600061134a8261138d565b9050919050565b60008115159050919050565b6000819050919050565b600081905061137582611440565b919050565b60008190506113888261144d565b919050565b600073ffffffffffffffffffffffffffffffffffffffff82169050919050565b6000819050919050565b600060ff82169050919050565b60006113cf82611367565b9050919050565b60006113e18261137a565b9050919050565b60005b838110156114065780820151818401526020810190506113eb565b83811115611415576000848401525b50505050565b6000819050919050565b6000819050919050565b6000601f19601f8301169050919050565b6005811061144a57fe5b50565b6003811061145757fe5b50565b6114638161133f565b811461146e57600080fd5b50565b61147a8161135d565b811461148557600080fd5b50565b6003811061149557600080fd5b50565b600581106114a557600080fd5b50565b6114b1816113ad565b81146114bc57600080fd5b5056fea365627a7a723158209dfd7e55e87cbdff2f551b5d1ce02140b3491020cd0fb0afcf41697f971fc2a16c6578706572696d656e74616cf564736f6c634300050b0040",
      "opcodes": "PUSH1 0x80 PUSH1 0x40 MSTORE CALLVALUE DUP1 ISZERO PUSH2 0x10 JUMPI PUSH1 0x0 DUP1 REVERT JUMPDEST POP PUSH2 0x1502 DUP1 PUSH2 0x20 PUSH1 0x0 CODECOPY PUSH1 0x0 RETURN INVALID PUSH1 0x80 PUSH1 0x40 MSTORE CALLVALUE DUP1 ISZERO PUSH2 0x10 JUMPI PUSH1 0x0 DUP1 REVERT JUMPDEST POP PUSH1 0x4 CALLDATASIZE LT PUSH2 0x62 JUMPI PUSH1 0x0 CALLDATALOAD PUSH1 0xE0 SHR DUP1 PUSH4 0x4FABAE78 EQ PUSH2 0x67 JUMPI DUP1 PUSH4 0x51C2E541 EQ PUSH2 0x9A JUMPI DUP1 PUSH4 0x59E537C1 EQ PUSH2 0xCA JUMPI DUP1 PUSH4 0x67C40CC4 EQ PUSH2 0xFA JUMPI DUP1 PUSH4 0x73B190D8 EQ PUSH2 0x12A JUMPI DUP1 PUSH4 0xCE963AFD EQ PUSH2 0x15B JUMPI JUMPDEST PUSH1 0x0 DUP1 REVERT JUMPDEST PUSH2 0x81 PUSH1 0x4 DUP1 CALLDATASIZE SUB PUSH2 0x7C SWAP2 SWAP1 DUP2 ADD SWAP1 PUSH2 0xBAF JUMP JUMPDEST PUSH2 0x18B JUMP JUMPDEST PUSH1 0x40 MLOAD PUSH2 0x91 SWAP5 SWAP4 SWAP3 SWAP2 SWAP1 PUSH2 0x12A0 JUMP JUMPDEST PUSH1 0x40 MLOAD DUP1 SWAP2 SUB SWAP1 RETURN JUMPDEST PUSH2 0xB4 PUSH1 0x4 DUP1 CALLDATASIZE SUB PUSH2 0xAF SWAP2 SWAP1 DUP2 ADD SWAP1 PUSH2 0xC92 JUMP JUMPDEST PUSH2 0x1DF JUMP JUMPDEST PUSH1 0x40 MLOAD PUSH2 0xC1 SWAP2 SWAP1 PUSH2 0x115F JUMP JUMPDEST PUSH1 0x40 MLOAD DUP1 SWAP2 SUB SWAP1 RETURN JUMPDEST PUSH2 0xE4 PUSH1 0x4 DUP1 CALLDATASIZE SUB PUSH2 0xDF SWAP2 SWAP1 DUP2 ADD SWAP1 PUSH2 0xBD8 JUMP JUMPDEST PUSH2 0x5C2 JUMP JUMPDEST PUSH1 0x40 MLOAD PUSH2 0xF1 SWAP2 SWAP1 PUSH2 0x1144 JUMP JUMPDEST PUSH1 0x40 MLOAD DUP1 SWAP2 SUB SWAP1 RETURN JUMPDEST PUSH2 0x114 PUSH1 0x4 DUP1 CALLDATASIZE SUB PUSH2 0x10F SWAP2 SWAP1 DUP2 ADD SWAP1 PUSH2 0xBD8 JUMP JUMPDEST PUSH2 0x628 JUMP JUMPDEST PUSH1 0x40 MLOAD PUSH2 0x121 SWAP2 SWAP1 PUSH2 0x115F JUMP JUMPDEST PUSH1 0x40 MLOAD DUP1 SWAP2 SUB SWAP1 RETURN JUMPDEST PUSH2 0x144 PUSH1 0x4 DUP1 CALLDATASIZE SUB PUSH2 0x13F SWAP2 SWAP1 DUP2 ADD SWAP1 PUSH2 0xBAF JUMP JUMPDEST PUSH2 0x7AD JUMP JUMPDEST PUSH1 0x40 MLOAD PUSH2 0x152 SWAP3 SWAP2 SWAP1 PUSH2 0x1277 JUMP JUMPDEST PUSH1 0x40 MLOAD DUP1 SWAP2 SUB SWAP1 RETURN JUMPDEST PUSH2 0x175 PUSH1 0x4 DUP1 CALLDATASIZE SUB PUSH2 0x170 SWAP2 SWAP1 DUP2 ADD SWAP1 PUSH2 0xC1D JUMP JUMPDEST PUSH2 0x7DA JUMP JUMPDEST PUSH1 0x40 MLOAD PUSH2 0x182 SWAP2 SWAP1 PUSH2 0x1129 JUMP JUMPDEST PUSH1 0x40 MLOAD DUP1 SWAP2 SUB SWAP1 RETURN JUMPDEST PUSH1 0x0 DUP1 PUSH1 0x0 DUP1 PUSH1 0x0 DUP1 PUSH1 0x0 DUP1 PUSH2 0x1A0 DUP10 PUSH2 0x82F JUMP JUMPDEST SWAP4 POP SWAP4 POP SWAP4 POP SWAP4 POP PUSH2 0x1B1 DUP5 PUSH2 0x862 JUMP JUMPDEST SWAP8 POP PUSH2 0x1BC DUP4 PUSH2 0x862 JUMP JUMPDEST SWAP7 POP PUSH2 0x1C7 DUP3 PUSH2 0x862 JUMP JUMPDEST SWAP6 POP PUSH2 0x1D2 DUP2 PUSH2 0x862 JUMP JUMPDEST SWAP5 POP POP POP POP POP SWAP2 SWAP4 POP SWAP2 SWAP4 JUMP JUMPDEST PUSH1 0x60 PUSH2 0x1E9 PUSH2 0x917 JUMP JUMPDEST DUP6 DUP6 PUSH2 0x1F8 SWAP2 SWAP1 DUP2 ADD SWAP1 PUSH2 0xD30 JUMP JUMPDEST SWAP1 POP PUSH2 0x202 PUSH2 0x95E JUMP JUMPDEST DUP5 DUP5 PUSH2 0x211 SWAP2 SWAP1 DUP2 ADD SWAP1 PUSH2 0xD07 JUMP JUMPDEST SWAP1 POP PUSH2 0x21B PUSH2 0x917 JUMP JUMPDEST DUP3 SWAP1 POP PUSH1 0x0 PUSH1 0x2 DUP2 GT ISZERO PUSH2 0x22B JUMPI INVALID JUMPDEST DUP3 PUSH1 0x0 ADD MLOAD PUSH1 0x2 DUP2 GT ISZERO PUSH2 0x23B JUMPI INVALID JUMPDEST EQ ISZERO PUSH2 0x2D4 JUMPI PUSH1 0x0 PUSH1 0x4 DUP2 GT ISZERO PUSH2 0x24E JUMPI INVALID JUMPDEST DUP4 PUSH1 0x0 ADD MLOAD PUSH1 0x4 DUP2 GT ISZERO PUSH2 0x25E JUMPI INVALID JUMPDEST EQ PUSH2 0x29E JUMPI PUSH1 0x40 MLOAD PUSH32 0x8C379A000000000000000000000000000000000000000000000000000000000 DUP2 MSTORE PUSH1 0x4 ADD PUSH2 0x295 SWAP1 PUSH2 0x11DC JUMP JUMPDEST PUSH1 0x40 MLOAD DUP1 SWAP2 SUB SWAP1 REVERT JUMPDEST PUSH1 0x1 DUP2 PUSH1 0x0 ADD SWAP1 PUSH1 0x4 DUP2 GT ISZERO PUSH2 0x2B0 JUMPI INVALID JUMPDEST SWAP1 DUP2 PUSH1 0x4 DUP2 GT ISZERO PUSH2 0x2BD JUMPI INVALID JUMPDEST DUP2 MSTORE POP POP DUP2 PUSH1 0x40 ADD MLOAD DUP2 PUSH1 0x40 ADD DUP2 DUP2 MSTORE POP POP PUSH2 0x584 JUMP JUMPDEST PUSH1 0x1 PUSH1 0x2 DUP2 GT ISZERO PUSH2 0x2E1 JUMPI INVALID JUMPDEST DUP3 PUSH1 0x0 ADD MLOAD PUSH1 0x2 DUP2 GT ISZERO PUSH2 0x2F1 JUMPI INVALID JUMPDEST EQ ISZERO PUSH2 0x3D2 JUMPI PUSH1 0x1 PUSH1 0x4 DUP2 GT ISZERO PUSH2 0x304 JUMPI INVALID JUMPDEST DUP4 PUSH1 0x0 ADD MLOAD PUSH1 0x4 DUP2 GT ISZERO PUSH2 0x314 JUMPI INVALID JUMPDEST EQ PUSH2 0x354 JUMPI PUSH1 0x40 MLOAD PUSH32 0x8C379A000000000000000000000000000000000000000000000000000000000 DUP2 MSTORE PUSH1 0x4 ADD PUSH2 0x34B SWAP1 PUSH2 0x121C JUMP JUMPDEST PUSH1 0x40 MLOAD DUP1 SWAP2 SUB SWAP1 REVERT JUMPDEST PUSH1 0x0 DUP3 PUSH1 0x20 ADD MLOAD EQ ISZERO PUSH2 0x39C JUMPI PUSH1 0x40 MLOAD PUSH32 0x8C379A000000000000000000000000000000000000000000000000000000000 DUP2 MSTORE PUSH1 0x4 ADD PUSH2 0x393 SWAP1 PUSH2 0x123C JUMP JUMPDEST PUSH1 0x40 MLOAD DUP1 SWAP2 SUB SWAP1 REVERT JUMPDEST PUSH1 0x2 DUP2 PUSH1 0x0 ADD SWAP1 PUSH1 0x4 DUP2 GT ISZERO PUSH2 0x3AE JUMPI INVALID JUMPDEST SWAP1 DUP2 PUSH1 0x4 DUP2 GT ISZERO PUSH2 0x3BB JUMPI INVALID JUMPDEST DUP2 MSTORE POP POP DUP2 PUSH1 0x20 ADD MLOAD DUP2 PUSH1 0x80 ADD DUP2 DUP2 MSTORE POP POP PUSH2 0x583 JUMP JUMPDEST PUSH1 0x2 DUP1 DUP2 GT ISZERO PUSH2 0x3DE JUMPI INVALID JUMPDEST DUP3 PUSH1 0x0 ADD MLOAD PUSH1 0x2 DUP2 GT ISZERO PUSH2 0x3EE JUMPI INVALID JUMPDEST EQ ISZERO PUSH2 0x547 JUMPI PUSH1 0x2 PUSH1 0x4 DUP2 GT ISZERO PUSH2 0x401 JUMPI INVALID JUMPDEST DUP4 PUSH1 0x0 ADD MLOAD PUSH1 0x4 DUP2 GT ISZERO PUSH2 0x411 JUMPI INVALID JUMPDEST EQ PUSH2 0x451 JUMPI PUSH1 0x40 MLOAD PUSH32 0x8C379A000000000000000000000000000000000000000000000000000000000 DUP2 MSTORE PUSH1 0x4 ADD PUSH2 0x448 SWAP1 PUSH2 0x11FC JUMP JUMPDEST PUSH1 0x40 MLOAD DUP1 SWAP2 SUB SWAP1 REVERT JUMPDEST PUSH1 0x0 DUP3 PUSH1 0x40 ADD MLOAD DUP4 PUSH1 0x20 ADD MLOAD PUSH1 0x40 MLOAD PUSH1 0x20 ADD PUSH2 0x46E SWAP3 SWAP2 SWAP1 PUSH2 0x10E2 JUMP JUMPDEST PUSH1 0x40 MLOAD PUSH1 0x20 DUP2 DUP4 SUB SUB DUP2 MSTORE SWAP1 PUSH1 0x40 MSTORE DUP1 MLOAD SWAP1 PUSH1 0x20 ADD KECCAK256 SWAP1 POP DUP4 PUSH1 0x40 ADD MLOAD DUP2 EQ PUSH2 0x4CC JUMPI PUSH1 0x40 MLOAD PUSH32 0x8C379A000000000000000000000000000000000000000000000000000000000 DUP2 MSTORE PUSH1 0x4 ADD PUSH2 0x4C3 SWAP1 PUSH2 0x11BC JUMP JUMPDEST PUSH1 0x40 MLOAD DUP1 SWAP2 SUB SWAP1 REVERT JUMPDEST PUSH1 0x0 DUP4 PUSH1 0x20 ADD MLOAD EQ ISZERO PUSH2 0x501 JUMPI PUSH1 0x4 DUP3 PUSH1 0x0 ADD SWAP1 PUSH1 0x4 DUP2 GT ISZERO PUSH2 0x4EB JUMPI INVALID JUMPDEST SWAP1 DUP2 PUSH1 0x4 DUP2 GT ISZERO PUSH2 0x4F8 JUMPI INVALID JUMPDEST DUP2 MSTORE POP POP PUSH2 0x541 JUMP JUMPDEST PUSH1 0x3 DUP3 PUSH1 0x0 ADD SWAP1 PUSH1 0x4 DUP2 GT ISZERO PUSH2 0x513 JUMPI INVALID JUMPDEST SWAP1 DUP2 PUSH1 0x4 DUP2 GT ISZERO PUSH2 0x520 JUMPI INVALID JUMPDEST DUP2 MSTORE POP POP DUP3 PUSH1 0x20 ADD MLOAD DUP3 PUSH1 0x60 ADD DUP2 DUP2 MSTORE POP POP DUP3 PUSH1 0x40 ADD MLOAD DUP3 PUSH1 0x20 ADD DUP2 DUP2 MSTORE POP POP JUMPDEST POP PUSH2 0x582 JUMP JUMPDEST PUSH1 0x40 MLOAD PUSH32 0x8C379A000000000000000000000000000000000000000000000000000000000 DUP2 MSTORE PUSH1 0x4 ADD PUSH2 0x579 SWAP1 PUSH2 0x119C JUMP JUMPDEST PUSH1 0x40 MLOAD DUP1 SWAP2 SUB SWAP1 REVERT JUMPDEST JUMPDEST JUMPDEST PUSH1 0x1 DUP2 PUSH1 0xA0 ADD DUP2 DUP2 MLOAD ADD SWAP2 POP DUP2 DUP2 MSTORE POP POP DUP1 PUSH1 0x40 MLOAD PUSH1 0x20 ADD PUSH2 0x5A6 SWAP2 SWAP1 PUSH2 0x125C JUMP JUMPDEST PUSH1 0x40 MLOAD PUSH1 0x20 DUP2 DUP4 SUB SUB DUP2 MSTORE SWAP1 PUSH1 0x40 MSTORE SWAP4 POP POP POP POP SWAP5 SWAP4 POP POP POP POP JUMP JUMPDEST PUSH1 0x0 PUSH2 0x5CC PUSH2 0x917 JUMP JUMPDEST DUP4 DUP4 PUSH2 0x5DB SWAP2 SWAP1 DUP2 ADD SWAP1 PUSH2 0xD30 JUMP JUMPDEST SWAP1 POP PUSH1 0x3 PUSH1 0x4 DUP2 GT ISZERO PUSH2 0x5EA JUMPI INVALID JUMPDEST DUP2 PUSH1 0x0 ADD MLOAD PUSH1 0x4 DUP2 GT ISZERO PUSH2 0x5FA JUMPI INVALID JUMPDEST EQ DUP1 PUSH2 0x61F JUMPI POP PUSH1 0x4 DUP1 DUP2 GT ISZERO PUSH2 0x60D JUMPI INVALID JUMPDEST DUP2 PUSH1 0x0 ADD MLOAD PUSH1 0x4 DUP2 GT ISZERO PUSH2 0x61D JUMPI INVALID JUMPDEST EQ JUMPDEST SWAP2 POP POP SWAP3 SWAP2 POP POP JUMP JUMPDEST PUSH1 0x60 PUSH2 0x632 PUSH2 0x917 JUMP JUMPDEST DUP4 DUP4 PUSH2 0x641 SWAP2 SWAP1 DUP2 ADD SWAP1 PUSH2 0xD30 JUMP JUMPDEST SWAP1 POP PUSH1 0x0 PUSH1 0x4 DUP2 GT ISZERO PUSH2 0x650 JUMPI INVALID JUMPDEST DUP2 PUSH1 0x0 ADD MLOAD PUSH1 0x4 DUP2 GT ISZERO PUSH2 0x660 JUMPI INVALID JUMPDEST EQ ISZERO PUSH2 0x68F JUMPI PUSH1 0x1 PUSH1 0x40 MLOAD PUSH1 0x20 ADD PUSH2 0x678 SWAP2 SWAP1 PUSH2 0x1181 JUMP JUMPDEST PUSH1 0x40 MLOAD PUSH1 0x20 DUP2 DUP4 SUB SUB DUP2 MSTORE SWAP1 PUSH1 0x40 MSTORE SWAP2 POP POP PUSH2 0x7A7 JUMP JUMPDEST PUSH1 0x1 PUSH1 0x4 DUP2 GT ISZERO PUSH2 0x69C JUMPI INVALID JUMPDEST DUP2 PUSH1 0x0 ADD MLOAD PUSH1 0x4 DUP2 GT ISZERO PUSH2 0x6AC JUMPI INVALID JUMPDEST EQ ISZERO PUSH2 0x6DB JUMPI PUSH1 0x0 PUSH1 0x40 MLOAD PUSH1 0x20 ADD PUSH2 0x6C4 SWAP2 SWAP1 PUSH2 0x1181 JUMP JUMPDEST PUSH1 0x40 MLOAD PUSH1 0x20 DUP2 DUP4 SUB SUB DUP2 MSTORE SWAP1 PUSH1 0x40 MSTORE SWAP2 POP POP PUSH2 0x7A7 JUMP JUMPDEST PUSH1 0x2 PUSH1 0x4 DUP2 GT ISZERO PUSH2 0x6E8 JUMPI INVALID JUMPDEST DUP2 PUSH1 0x0 ADD MLOAD PUSH1 0x4 DUP2 GT ISZERO PUSH2 0x6F8 JUMPI INVALID JUMPDEST EQ ISZERO PUSH2 0x727 JUMPI PUSH1 0x1 PUSH1 0x40 MLOAD PUSH1 0x20 ADD PUSH2 0x710 SWAP2 SWAP1 PUSH2 0x1181 JUMP JUMPDEST PUSH1 0x40 MLOAD PUSH1 0x20 DUP2 DUP4 SUB SUB DUP2 MSTORE SWAP1 PUSH1 0x40 MSTORE SWAP2 POP POP PUSH2 0x7A7 JUMP JUMPDEST PUSH1 0x4 DUP1 DUP2 GT ISZERO PUSH2 0x733 JUMPI INVALID JUMPDEST DUP2 PUSH1 0x0 ADD MLOAD PUSH1 0x4 DUP2 GT ISZERO PUSH2 0x743 JUMPI INVALID JUMPDEST EQ ISZERO PUSH2 0x772 JUMPI PUSH1 0x1 PUSH1 0x40 MLOAD PUSH1 0x20 ADD PUSH2 0x75B SWAP2 SWAP1 PUSH2 0x1181 JUMP JUMPDEST PUSH1 0x40 MLOAD PUSH1 0x20 DUP2 DUP4 SUB SUB DUP2 MSTORE SWAP1 PUSH1 0x40 MSTORE SWAP2 POP POP PUSH2 0x7A7 JUMP JUMPDEST PUSH2 0x784 DUP2 PUSH1 0x60 ADD MLOAD DUP3 PUSH1 0x80 ADD MLOAD PUSH2 0x883 JUMP JUMPDEST PUSH1 0x40 MLOAD PUSH1 0x20 ADD PUSH2 0x794 SWAP2 SWAP1 PUSH2 0x1181 JUMP JUMPDEST PUSH1 0x40 MLOAD PUSH1 0x20 DUP2 DUP4 SUB SUB DUP2 MSTORE SWAP1 PUSH1 0x40 MSTORE SWAP2 POP POP JUMPDEST SWAP3 SWAP2 POP POP JUMP JUMPDEST PUSH1 0x0 DUP1 PUSH1 0x0 DUP1 PUSH1 0x0 DUP1 PUSH2 0x7BF DUP8 PUSH2 0x18B JUMP JUMPDEST SWAP4 POP SWAP4 POP SWAP4 POP SWAP4 POP DUP3 DUP5 ADD SWAP6 POP DUP1 DUP3 ADD SWAP5 POP POP POP POP POP SWAP2 POP SWAP2 JUMP JUMPDEST PUSH1 0x0 PUSH2 0x7E4 PUSH2 0x917 JUMP JUMPDEST DUP6 DUP6 PUSH2 0x7F3 SWAP2 SWAP1 DUP2 ADD SWAP1 PUSH2 0xD30 JUMP JUMPDEST SWAP1 POP DUP4 DUP4 PUSH1 0x2 DUP4 PUSH1 0xA0 ADD MLOAD DUP2 PUSH2 0x805 JUMPI INVALID JUMPDEST MOD DUP2 DUP2 LT PUSH2 0x80F JUMPI INVALID JUMPDEST SWAP1 POP PUSH1 0x20 MUL ADD PUSH1 0x20 PUSH2 0x824 SWAP2 SWAP1 DUP2 ADD SWAP1 PUSH2 0xB86 JUMP JUMPDEST SWAP2 POP POP SWAP5 SWAP4 POP POP POP POP JUMP JUMPDEST PUSH1 0x0 DUP1 PUSH1 0x0 DUP1 PUSH1 0x40 MLOAD DUP6 PUSH1 0x0 DUP3 ADD MSTORE PUSH1 0x0 DUP2 ADD MLOAD SWAP5 POP PUSH1 0x8 DUP2 ADD MLOAD SWAP4 POP PUSH1 0x10 DUP2 ADD MLOAD SWAP3 POP PUSH1 0x18 DUP2 ADD MLOAD SWAP2 POP POP SWAP2 SWAP4 POP SWAP2 SWAP4 JUMP JUMPDEST PUSH1 0x0 PUSH1 0x6 DUP3 PUSH1 0xC0 SHR PUSH8 0xFFFFFFFFFFFFFFFF AND DUP2 PUSH2 0x87B JUMPI INVALID JUMPDEST MOD SWAP1 POP SWAP2 SWAP1 POP JUMP JUMPDEST PUSH1 0x0 DUP1 PUSH2 0x890 DUP5 DUP5 PUSH2 0x8E4 JUMP JUMPDEST SWAP1 POP PUSH1 0x0 DUP1 PUSH2 0x89E DUP4 PUSH2 0x7AD JUMP JUMPDEST SWAP2 POP SWAP2 POP DUP1 PUSH1 0xFF AND DUP3 PUSH1 0xFF AND GT ISZERO PUSH2 0x8BC JUMPI PUSH1 0x0 SWAP4 POP POP POP POP PUSH2 0x8DE JUMP JUMPDEST DUP1 PUSH1 0xFF AND DUP3 PUSH1 0xFF AND LT ISZERO PUSH2 0x8D6 JUMPI PUSH1 0x1 SWAP4 POP POP POP POP PUSH2 0x8DE JUMP JUMPDEST PUSH1 0x2 SWAP4 POP POP POP POP JUMPDEST SWAP3 SWAP2 POP POP JUMP JUMPDEST PUSH1 0x0 DUP2 DUP4 MUL PUSH1 0x40 MLOAD PUSH1 0x20 ADD PUSH2 0x8F9 SWAP2 SWAP1 PUSH2 0x110E JUMP JUMPDEST PUSH1 0x40 MLOAD PUSH1 0x20 DUP2 DUP4 SUB SUB DUP2 MSTORE SWAP1 PUSH1 0x40 MSTORE DUP1 MLOAD SWAP1 PUSH1 0x20 ADD KECCAK256 SWAP1 POP SWAP3 SWAP2 POP POP JUMP JUMPDEST PUSH1 0x40 MLOAD DUP1 PUSH1 0xC0 ADD PUSH1 0x40 MSTORE DUP1 PUSH1 0x0 PUSH1 0x4 DUP2 GT ISZERO PUSH2 0x92F JUMPI INVALID JUMPDEST DUP2 MSTORE PUSH1 0x20 ADD PUSH1 0x0 DUP1 NOT AND DUP2 MSTORE PUSH1 0x20 ADD PUSH1 0x0 DUP1 NOT AND DUP2 MSTORE PUSH1 0x20 ADD PUSH1 0x0 DUP2 MSTORE PUSH1 0x20 ADD PUSH1 0x0 DUP2 MSTORE PUSH1 0x20 ADD PUSH1 0x0 DUP2 MSTORE POP SWAP1 JUMP JUMPDEST PUSH1 0x40 MLOAD DUP1 PUSH1 0x60 ADD PUSH1 0x40 MSTORE DUP1 PUSH1 0x0 PUSH1 0x2 DUP2 GT ISZERO PUSH2 0x976 JUMPI INVALID JUMPDEST DUP2 MSTORE PUSH1 0x20 ADD PUSH1 0x0 DUP2 MSTORE PUSH1 0x20 ADD PUSH1 0x0 DUP1 NOT AND DUP2 MSTORE POP SWAP1 JUMP JUMPDEST PUSH1 0x0 DUP2 CALLDATALOAD SWAP1 POP PUSH2 0x99C DUP2 PUSH2 0x145A JUMP JUMPDEST SWAP3 SWAP2 POP POP JUMP JUMPDEST PUSH1 0x0 DUP1 DUP4 PUSH1 0x1F DUP5 ADD SLT PUSH2 0x9B4 JUMPI PUSH1 0x0 DUP1 REVERT JUMPDEST DUP3 CALLDATALOAD SWAP1 POP PUSH8 0xFFFFFFFFFFFFFFFF DUP2 GT ISZERO PUSH2 0x9CD JUMPI PUSH1 0x0 DUP1 REVERT JUMPDEST PUSH1 0x20 DUP4 ADD SWAP2 POP DUP4 PUSH1 0x20 DUP3 MUL DUP4 ADD GT ISZERO PUSH2 0x9E5 JUMPI PUSH1 0x0 DUP1 REVERT JUMPDEST SWAP3 POP SWAP3 SWAP1 POP JUMP JUMPDEST PUSH1 0x0 DUP2 CALLDATALOAD SWAP1 POP PUSH2 0x9FB DUP2 PUSH2 0x1471 JUMP JUMPDEST SWAP3 SWAP2 POP POP JUMP JUMPDEST PUSH1 0x0 DUP1 DUP4 PUSH1 0x1F DUP5 ADD SLT PUSH2 0xA13 JUMPI PUSH1 0x0 DUP1 REVERT JUMPDEST DUP3 CALLDATALOAD SWAP1 POP PUSH8 0xFFFFFFFFFFFFFFFF DUP2 GT ISZERO PUSH2 0xA2C JUMPI PUSH1 0x0 DUP1 REVERT JUMPDEST PUSH1 0x20 DUP4 ADD SWAP2 POP DUP4 PUSH1 0x1 DUP3 MUL DUP4 ADD GT ISZERO PUSH2 0xA44 JUMPI PUSH1 0x0 DUP1 REVERT JUMPDEST SWAP3 POP SWAP3 SWAP1 POP JUMP JUMPDEST PUSH1 0x0 DUP2 CALLDATALOAD SWAP1 POP PUSH2 0xA5A DUP2 PUSH2 0x1488 JUMP JUMPDEST SWAP3 SWAP2 POP POP JUMP JUMPDEST PUSH1 0x0 DUP2 CALLDATALOAD SWAP1 POP PUSH2 0xA6F DUP2 PUSH2 0x1498 JUMP JUMPDEST SWAP3 SWAP2 POP POP JUMP JUMPDEST PUSH1 0x0 PUSH1 0x60 DUP3 DUP5 SUB SLT ISZERO PUSH2 0xA87 JUMPI PUSH1 0x0 DUP1 REVERT JUMPDEST PUSH2 0xA91 PUSH1 0x60 PUSH2 0x12E5 JUMP JUMPDEST SWAP1 POP PUSH1 0x0 PUSH2 0xAA1 DUP5 DUP3 DUP6 ADD PUSH2 0xA4B JUMP JUMPDEST PUSH1 0x0 DUP4 ADD MSTORE POP PUSH1 0x20 PUSH2 0xAB5 DUP5 DUP3 DUP6 ADD PUSH2 0xB71 JUMP JUMPDEST PUSH1 0x20 DUP4 ADD MSTORE POP PUSH1 0x40 PUSH2 0xAC9 DUP5 DUP3 DUP6 ADD PUSH2 0x9EC JUMP JUMPDEST PUSH1 0x40 DUP4 ADD MSTORE POP SWAP3 SWAP2 POP POP JUMP JUMPDEST PUSH1 0x0 PUSH1 0xC0 DUP3 DUP5 SUB SLT ISZERO PUSH2 0xAE7 JUMPI PUSH1 0x0 DUP1 REVERT JUMPDEST PUSH2 0xAF1 PUSH1 0xC0 PUSH2 0x12E5 JUMP JUMPDEST SWAP1 POP PUSH1 0x0 PUSH2 0xB01 DUP5 DUP3 DUP6 ADD PUSH2 0xA60 JUMP JUMPDEST PUSH1 0x0 DUP4 ADD MSTORE POP PUSH1 0x20 PUSH2 0xB15 DUP5 DUP3 DUP6 ADD PUSH2 0x9EC JUMP JUMPDEST PUSH1 0x20 DUP4 ADD MSTORE POP PUSH1 0x40 PUSH2 0xB29 DUP5 DUP3 DUP6 ADD PUSH2 0x9EC JUMP JUMPDEST PUSH1 0x40 DUP4 ADD MSTORE POP PUSH1 0x60 PUSH2 0xB3D DUP5 DUP3 DUP6 ADD PUSH2 0xB71 JUMP JUMPDEST PUSH1 0x60 DUP4 ADD MSTORE POP PUSH1 0x80 PUSH2 0xB51 DUP5 DUP3 DUP6 ADD PUSH2 0xB71 JUMP JUMPDEST PUSH1 0x80 DUP4 ADD MSTORE POP PUSH1 0xA0 PUSH2 0xB65 DUP5 DUP3 DUP6 ADD PUSH2 0xB71 JUMP JUMPDEST PUSH1 0xA0 DUP4 ADD MSTORE POP SWAP3 SWAP2 POP POP JUMP JUMPDEST PUSH1 0x0 DUP2 CALLDATALOAD SWAP1 POP PUSH2 0xB80 DUP2 PUSH2 0x14A8 JUMP JUMPDEST SWAP3 SWAP2 POP POP JUMP JUMPDEST PUSH1 0x0 PUSH1 0x20 DUP3 DUP5 SUB SLT ISZERO PUSH2 0xB98 JUMPI PUSH1 0x0 DUP1 REVERT JUMPDEST PUSH1 0x0 PUSH2 0xBA6 DUP5 DUP3 DUP6 ADD PUSH2 0x98D JUMP JUMPDEST SWAP2 POP POP SWAP3 SWAP2 POP POP JUMP JUMPDEST PUSH1 0x0 PUSH1 0x20 DUP3 DUP5 SUB SLT ISZERO PUSH2 0xBC1 JUMPI PUSH1 0x0 DUP1 REVERT JUMPDEST PUSH1 0x0 PUSH2 0xBCF DUP5 DUP3 DUP6 ADD PUSH2 0x9EC JUMP JUMPDEST SWAP2 POP POP SWAP3 SWAP2 POP POP JUMP JUMPDEST PUSH1 0x0 DUP1 PUSH1 0x20 DUP4 DUP6 SUB SLT ISZERO PUSH2 0xBEB JUMPI PUSH1 0x0 DUP1 REVERT JUMPDEST PUSH1 0x0 DUP4 ADD CALLDATALOAD PUSH8 0xFFFFFFFFFFFFFFFF DUP2 GT ISZERO PUSH2 0xC05 JUMPI PUSH1 0x0 DUP1 REVERT JUMPDEST PUSH2 0xC11 DUP6 DUP3 DUP7 ADD PUSH2 0xA01 JUMP JUMPDEST SWAP3 POP SWAP3 POP POP SWAP3 POP SWAP3 SWAP1 POP JUMP JUMPDEST PUSH1 0x0 DUP1 PUSH1 0x0 DUP1 PUSH1 0x40 DUP6 DUP8 SUB SLT ISZERO PUSH2 0xC33 JUMPI PUSH1 0x0 DUP1 REVERT JUMPDEST PUSH1 0x0 DUP6 ADD CALLDATALOAD PUSH8 0xFFFFFFFFFFFFFFFF DUP2 GT ISZERO PUSH2 0xC4D JUMPI PUSH1 0x0 DUP1 REVERT JUMPDEST PUSH2 0xC59 DUP8 DUP3 DUP9 ADD PUSH2 0xA01 JUMP JUMPDEST SWAP5 POP SWAP5 POP POP PUSH1 0x20 DUP6 ADD CALLDATALOAD PUSH8 0xFFFFFFFFFFFFFFFF DUP2 GT ISZERO PUSH2 0xC78 JUMPI PUSH1 0x0 DUP1 REVERT JUMPDEST PUSH2 0xC84 DUP8 DUP3 DUP9 ADD PUSH2 0x9A2 JUMP JUMPDEST SWAP3 POP SWAP3 POP POP SWAP3 SWAP6 SWAP2 SWAP5 POP SWAP3 POP JUMP JUMPDEST PUSH1 0x0 DUP1 PUSH1 0x0 DUP1 PUSH1 0x40 DUP6 DUP8 SUB SLT ISZERO PUSH2 0xCA8 JUMPI PUSH1 0x0 DUP1 REVERT JUMPDEST PUSH1 0x0 DUP6 ADD CALLDATALOAD PUSH8 0xFFFFFFFFFFFFFFFF DUP2 GT ISZERO PUSH2 0xCC2 JUMPI PUSH1 0x0 DUP1 REVERT JUMPDEST PUSH2 0xCCE DUP8 DUP3 DUP9 ADD PUSH2 0xA01 JUMP JUMPDEST SWAP5 POP SWAP5 POP POP PUSH1 0x20 DUP6 ADD CALLDATALOAD PUSH8 0xFFFFFFFFFFFFFFFF DUP2 GT ISZERO PUSH2 0xCED JUMPI PUSH1 0x0 DUP1 REVERT JUMPDEST PUSH2 0xCF9 DUP8 DUP3 DUP9 ADD PUSH2 0xA01 JUMP JUMPDEST SWAP3 POP SWAP3 POP POP SWAP3 SWAP6 SWAP2 SWAP5 POP SWAP3 POP JUMP JUMPDEST PUSH1 0x0 PUSH1 0x60 DUP3 DUP5 SUB SLT ISZERO PUSH2 0xD19 JUMPI PUSH1 0x0 DUP1 REVERT JUMPDEST PUSH1 0x0 PUSH2 0xD27 DUP5 DUP3 DUP6 ADD PUSH2 0xA75 JUMP JUMPDEST SWAP2 POP POP SWAP3 SWAP2 POP POP JUMP JUMPDEST PUSH1 0x0 PUSH1 0xC0 DUP3 DUP5 SUB SLT ISZERO PUSH2 0xD42 JUMPI PUSH1 0x0 DUP1 REVERT JUMPDEST PUSH1 0x0 PUSH2 0xD50 DUP5 DUP3 DUP6 ADD PUSH2 0xAD5 JUMP JUMPDEST SWAP2 POP POP SWAP3 SWAP2 POP POP JUMP JUMPDEST PUSH2 0xD62 DUP2 PUSH2 0x133F JUMP JUMPDEST DUP3 MSTORE POP POP JUMP JUMPDEST PUSH2 0xD71 DUP2 PUSH2 0x1351 JUMP JUMPDEST DUP3 MSTORE POP POP JUMP JUMPDEST PUSH2 0xD80 DUP2 PUSH2 0x135D JUMP JUMPDEST DUP3 MSTORE POP POP JUMP JUMPDEST PUSH2 0xD97 PUSH2 0xD92 DUP3 PUSH2 0x135D JUMP JUMPDEST PUSH2 0x141B JUMP JUMPDEST DUP3 MSTORE POP POP JUMP JUMPDEST PUSH1 0x0 PUSH2 0xDA8 DUP3 PUSH2 0x1312 JUMP JUMPDEST PUSH2 0xDB2 DUP2 DUP6 PUSH2 0x131D JUMP JUMPDEST SWAP4 POP PUSH2 0xDC2 DUP2 DUP6 PUSH1 0x20 DUP7 ADD PUSH2 0x13E8 JUMP JUMPDEST PUSH2 0xDCB DUP2 PUSH2 0x142F JUMP JUMPDEST DUP5 ADD SWAP2 POP POP SWAP3 SWAP2 POP POP JUMP JUMPDEST PUSH2 0xDDF DUP2 PUSH2 0x13C4 JUMP JUMPDEST DUP3 MSTORE POP POP JUMP JUMPDEST PUSH2 0xDEE DUP2 PUSH2 0x13D6 JUMP JUMPDEST DUP3 MSTORE POP POP JUMP JUMPDEST PUSH1 0x0 PUSH2 0xE01 PUSH1 0x13 DUP4 PUSH2 0x132E JUMP JUMPDEST SWAP2 POP PUSH32 0x496E76616C696420616374696F6E207479706500000000000000000000000000 PUSH1 0x0 DUP4 ADD MSTORE PUSH1 0x20 DUP3 ADD SWAP1 POP SWAP2 SWAP1 POP JUMP JUMPDEST PUSH1 0x0 PUSH2 0xE41 PUSH1 0x40 DUP4 PUSH2 0x132E JUMP JUMPDEST SWAP2 POP PUSH32 0x4E756D6265722070726573656E74656420627920503120776173206E6F742077 PUSH1 0x0 DUP4 ADD MSTORE PUSH32 0x686174207761732070726576696F75736C7920636F6D6D697474656420746F2E PUSH1 0x20 DUP4 ADD MSTORE PUSH1 0x40 DUP3 ADD SWAP1 POP SWAP2 SWAP1 POP JUMP JUMPDEST PUSH1 0x0 PUSH2 0xEA7 PUSH1 0x36 DUP4 PUSH2 0x132E JUMP JUMPDEST SWAP2 POP PUSH32 0x4D757374206170706C7920434F4D4D49545F544F5F4841534820746F20574149 PUSH1 0x0 DUP4 ADD MSTORE PUSH32 0x54494E475F464F525F50315F434F4D4D49544D454E5400000000000000000000 PUSH1 0x20 DUP4 ADD MSTORE PUSH1 0x40 DUP3 ADD SWAP1 POP SWAP2 SWAP1 POP JUMP JUMPDEST PUSH1 0x0 PUSH2 0xF0D PUSH1 0x2C DUP4 PUSH2 0x132E JUMP JUMPDEST SWAP2 POP PUSH32 0x4D757374206170706C792052455645414C5F4E554D20746F2050325F434F4D4D PUSH1 0x0 DUP4 ADD MSTORE PUSH32 0x49545445445F544F5F4E554D0000000000000000000000000000000000000000 PUSH1 0x20 DUP4 ADD MSTORE PUSH1 0x40 DUP3 ADD SWAP1 POP SWAP2 SWAP1 POP JUMP JUMPDEST PUSH1 0x0 PUSH2 0xF73 PUSH1 0x30 DUP4 PUSH2 0x132E JUMP JUMPDEST SWAP2 POP PUSH32 0x4D757374206170706C7920434F4D4D49545F544F5F4E554D20746F2050315F43 PUSH1 0x0 DUP4 ADD MSTORE PUSH32 0x4F4D4D49545445445F544F5F4841534800000000000000000000000000000000 PUSH1 0x20 DUP4 ADD MSTORE PUSH1 0x40 DUP3 ADD SWAP1 POP SWAP2 SWAP1 POP JUMP JUMPDEST PUSH1 0x0 PUSH2 0xFD9 PUSH1 0x30 DUP4 PUSH2 0x132E JUMP JUMPDEST SWAP2 POP PUSH32 0x497420697320636F6E7369646572656420696E76616C696420746F2075736520 PUSH1 0x0 DUP4 ADD MSTORE PUSH32 0x3020617320746865206E756D6265722E00000000000000000000000000000000 PUSH1 0x20 DUP4 ADD MSTORE PUSH1 0x40 DUP3 ADD SWAP1 POP SWAP2 SWAP1 POP JUMP JUMPDEST PUSH1 0xC0 DUP3 ADD PUSH1 0x0 DUP3 ADD MLOAD PUSH2 0x1048 PUSH1 0x0 DUP6 ADD DUP3 PUSH2 0xDD6 JUMP JUMPDEST POP PUSH1 0x20 DUP3 ADD MLOAD PUSH2 0x105B PUSH1 0x20 DUP6 ADD DUP3 PUSH2 0xD77 JUMP JUMPDEST POP PUSH1 0x40 DUP3 ADD MLOAD PUSH2 0x106E PUSH1 0x40 DUP6 ADD DUP3 PUSH2 0xD77 JUMP JUMPDEST POP PUSH1 0x60 DUP3 ADD MLOAD PUSH2 0x1081 PUSH1 0x60 DUP6 ADD DUP3 PUSH2 0x10AD JUMP JUMPDEST POP PUSH1 0x80 DUP3 ADD MLOAD PUSH2 0x1094 PUSH1 0x80 DUP6 ADD DUP3 PUSH2 0x10AD JUMP JUMPDEST POP PUSH1 0xA0 DUP3 ADD MLOAD PUSH2 0x10A7 PUSH1 0xA0 DUP6 ADD DUP3 PUSH2 0x10AD JUMP JUMPDEST POP POP POP POP JUMP JUMPDEST PUSH2 0x10B6 DUP2 PUSH2 0x13AD JUMP JUMPDEST DUP3 MSTORE POP POP JUMP JUMPDEST PUSH2 0x10CD PUSH2 0x10C8 DUP3 PUSH2 0x13AD JUMP JUMPDEST PUSH2 0x1425 JUMP JUMPDEST DUP3 MSTORE POP POP JUMP JUMPDEST PUSH2 0x10DC DUP2 PUSH2 0x13B7 JUMP JUMPDEST DUP3 MSTORE POP POP JUMP JUMPDEST PUSH1 0x0 PUSH2 0x10EE DUP3 DUP6 PUSH2 0xD86 JUMP JUMPDEST PUSH1 0x20 DUP3 ADD SWAP2 POP PUSH2 0x10FE DUP3 DUP5 PUSH2 0x10BC JUMP JUMPDEST PUSH1 0x20 DUP3 ADD SWAP2 POP DUP2 SWAP1 POP SWAP4 SWAP3 POP POP POP JUMP JUMPDEST PUSH1 0x0 PUSH2 0x111A DUP3 DUP5 PUSH2 0x10BC JUMP JUMPDEST PUSH1 0x20 DUP3 ADD SWAP2 POP DUP2 SWAP1 POP SWAP3 SWAP2 POP POP JUMP JUMPDEST PUSH1 0x0 PUSH1 0x20 DUP3 ADD SWAP1 POP PUSH2 0x113E PUSH1 0x0 DUP4 ADD DUP5 PUSH2 0xD59 JUMP JUMPDEST SWAP3 SWAP2 POP POP JUMP JUMPDEST PUSH1 0x0 PUSH1 0x20 DUP3 ADD SWAP1 POP PUSH2 0x1159 PUSH1 0x0 DUP4 ADD DUP5 PUSH2 0xD68 JUMP JUMPDEST SWAP3 SWAP2 POP POP JUMP JUMPDEST PUSH1 0x0 PUSH1 0x20 DUP3 ADD SWAP1 POP DUP2 DUP2 SUB PUSH1 0x0 DUP4 ADD MSTORE PUSH2 0x1179 DUP2 DUP5 PUSH2 0xD9D JUMP JUMPDEST SWAP1 POP SWAP3 SWAP2 POP POP JUMP JUMPDEST PUSH1 0x0 PUSH1 0x20 DUP3 ADD SWAP1 POP PUSH2 0x1196 PUSH1 0x0 DUP4 ADD DUP5 PUSH2 0xDE5 JUMP JUMPDEST SWAP3 SWAP2 POP POP JUMP JUMPDEST PUSH1 0x0 PUSH1 0x20 DUP3 ADD SWAP1 POP DUP2 DUP2 SUB PUSH1 0x0 DUP4 ADD MSTORE PUSH2 0x11B5 DUP2 PUSH2 0xDF4 JUMP JUMPDEST SWAP1 POP SWAP2 SWAP1 POP JUMP JUMPDEST PUSH1 0x0 PUSH1 0x20 DUP3 ADD SWAP1 POP DUP2 DUP2 SUB PUSH1 0x0 DUP4 ADD MSTORE PUSH2 0x11D5 DUP2 PUSH2 0xE34 JUMP JUMPDEST SWAP1 POP SWAP2 SWAP1 POP JUMP JUMPDEST PUSH1 0x0 PUSH1 0x20 DUP3 ADD SWAP1 POP DUP2 DUP2 SUB PUSH1 0x0 DUP4 ADD MSTORE PUSH2 0x11F5 DUP2 PUSH2 0xE9A JUMP JUMPDEST SWAP1 POP SWAP2 SWAP1 POP JUMP JUMPDEST PUSH1 0x0 PUSH1 0x20 DUP3 ADD SWAP1 POP DUP2 DUP2 SUB PUSH1 0x0 DUP4 ADD MSTORE PUSH2 0x1215 DUP2 PUSH2 0xF00 JUMP JUMPDEST SWAP1 POP SWAP2 SWAP1 POP JUMP JUMPDEST PUSH1 0x0 PUSH1 0x20 DUP3 ADD SWAP1 POP DUP2 DUP2 SUB PUSH1 0x0 DUP4 ADD MSTORE PUSH2 0x1235 DUP2 PUSH2 0xF66 JUMP JUMPDEST SWAP1 POP SWAP2 SWAP1 POP JUMP JUMPDEST PUSH1 0x0 PUSH1 0x20 DUP3 ADD SWAP1 POP DUP2 DUP2 SUB PUSH1 0x0 DUP4 ADD MSTORE PUSH2 0x1255 DUP2 PUSH2 0xFCC JUMP JUMPDEST SWAP1 POP SWAP2 SWAP1 POP JUMP JUMPDEST PUSH1 0x0 PUSH1 0xC0 DUP3 ADD SWAP1 POP PUSH2 0x1271 PUSH1 0x0 DUP4 ADD DUP5 PUSH2 0x1032 JUMP JUMPDEST SWAP3 SWAP2 POP POP JUMP JUMPDEST PUSH1 0x0 PUSH1 0x40 DUP3 ADD SWAP1 POP PUSH2 0x128C PUSH1 0x0 DUP4 ADD DUP6 PUSH2 0x10D3 JUMP JUMPDEST PUSH2 0x1299 PUSH1 0x20 DUP4 ADD DUP5 PUSH2 0x10D3 JUMP JUMPDEST SWAP4 SWAP3 POP POP POP JUMP JUMPDEST PUSH1 0x0 PUSH1 0x80 DUP3 ADD SWAP1 POP PUSH2 0x12B5 PUSH1 0x0 DUP4 ADD DUP8 PUSH2 0x10D3 JUMP JUMPDEST PUSH2 0x12C2 PUSH1 0x20 DUP4 ADD DUP7 PUSH2 0x10D3 JUMP JUMPDEST PUSH2 0x12CF PUSH1 0x40 DUP4 ADD DUP6 PUSH2 0x10D3 JUMP JUMPDEST PUSH2 0x12DC PUSH1 0x60 DUP4 ADD DUP5 PUSH2 0x10D3 JUMP JUMPDEST SWAP6 SWAP5 POP POP POP POP POP JUMP JUMPDEST PUSH1 0x0 PUSH1 0x40 MLOAD SWAP1 POP DUP2 DUP2 ADD DUP2 DUP2 LT PUSH8 0xFFFFFFFFFFFFFFFF DUP3 GT OR ISZERO PUSH2 0x1308 JUMPI PUSH1 0x0 DUP1 REVERT JUMPDEST DUP1 PUSH1 0x40 MSTORE POP SWAP2 SWAP1 POP JUMP JUMPDEST PUSH1 0x0 DUP2 MLOAD SWAP1 POP SWAP2 SWAP1 POP JUMP JUMPDEST PUSH1 0x0 DUP3 DUP3 MSTORE PUSH1 0x20 DUP3 ADD SWAP1 POP SWAP3 SWAP2 POP POP JUMP JUMPDEST PUSH1 0x0 DUP3 DUP3 MSTORE PUSH1 0x20 DUP3 ADD SWAP1 POP SWAP3 SWAP2 POP POP JUMP JUMPDEST PUSH1 0x0 PUSH2 0x134A DUP3 PUSH2 0x138D JUMP JUMPDEST SWAP1 POP SWAP2 SWAP1 POP JUMP JUMPDEST PUSH1 0x0 DUP2 ISZERO ISZERO SWAP1 POP SWAP2 SWAP1 POP JUMP JUMPDEST PUSH1 0x0 DUP2 SWAP1 POP SWAP2 SWAP1 POP JUMP JUMPDEST PUSH1 0x0 DUP2 SWAP1 POP PUSH2 0x1375 DUP3 PUSH2 0x1440 JUMP JUMPDEST SWAP2 SWAP1 POP JUMP JUMPDEST PUSH1 0x0 DUP2 SWAP1 POP PUSH2 0x1388 DUP3 PUSH2 0x144D JUMP JUMPDEST SWAP2 SWAP1 POP JUMP JUMPDEST PUSH1 0x0 PUSH20 0xFFFFFFFFFFFFFFFFFFFFFFFFFFFFFFFFFFFFFFFF DUP3 AND SWAP1 POP SWAP2 SWAP1 POP JUMP JUMPDEST PUSH1 0x0 DUP2 SWAP1 POP SWAP2 SWAP1 POP JUMP JUMPDEST PUSH1 0x0 PUSH1 0xFF DUP3 AND SWAP1 POP SWAP2 SWAP1 POP JUMP JUMPDEST PUSH1 0x0 PUSH2 0x13CF DUP3 PUSH2 0x1367 JUMP JUMPDEST SWAP1 POP SWAP2 SWAP1 POP JUMP JUMPDEST PUSH1 0x0 PUSH2 0x13E1 DUP3 PUSH2 0x137A JUMP JUMPDEST SWAP1 POP SWAP2 SWAP1 POP JUMP JUMPDEST PUSH1 0x0 JUMPDEST DUP4 DUP2 LT ISZERO PUSH2 0x1406 JUMPI DUP1 DUP3 ADD MLOAD DUP2 DUP5 ADD MSTORE PUSH1 0x20 DUP2 ADD SWAP1 POP PUSH2 0x13EB JUMP JUMPDEST DUP4 DUP2 GT ISZERO PUSH2 0x1415 JUMPI PUSH1 0x0 DUP5 DUP5 ADD MSTORE JUMPDEST POP POP POP POP JUMP JUMPDEST PUSH1 0x0 DUP2 SWAP1 POP SWAP2 SWAP1 POP JUMP JUMPDEST PUSH1 0x0 DUP2 SWAP1 POP SWAP2 SWAP1 POP JUMP JUMPDEST PUSH1 0x0 PUSH1 0x1F NOT PUSH1 0x1F DUP4 ADD AND SWAP1 POP SWAP2 SWAP1 POP JUMP JUMPDEST PUSH1 0x5 DUP2 LT PUSH2 0x144A JUMPI INVALID JUMPDEST POP JUMP JUMPDEST PUSH1 0x3 DUP2 LT PUSH2 0x1457 JUMPI INVALID JUMPDEST POP JUMP JUMPDEST PUSH2 0x1463 DUP2 PUSH2 0x133F JUMP JUMPDEST DUP2 EQ PUSH2 0x146E JUMPI PUSH1 0x0 DUP1 REVERT JUMPDEST POP JUMP JUMPDEST PUSH2 0x147A DUP2 PUSH2 0x135D JUMP JUMPDEST DUP2 EQ PUSH2 0x1485 JUMPI PUSH1 0x0 DUP1 REVERT JUMPDEST POP JUMP JUMPDEST PUSH1 0x3 DUP2 LT PUSH2 0x1495 JUMPI PUSH1 0x0 DUP1 REVERT JUMPDEST POP JUMP JUMPDEST PUSH1 0x5 DUP2 LT PUSH2 0x14A5 JUMPI PUSH1 0x0 DUP1 REVERT JUMPDEST POP JUMP JUMPDEST PUSH2 0x14B1 DUP2 PUSH2 0x13AD JUMP JUMPDEST DUP2 EQ PUSH2 0x14BC JUMPI PUSH1 0x0 DUP1 REVERT JUMPDEST POP JUMP INVALID LOG3 PUSH6 0x627A7A723158 KECCAK256 SWAP14 REVERT PUSH31 0x55E87CBDFF2F551B5D1CE02140B3491020CD0FB0AFCF41697F971FC2A16C65 PUSH25 0x706572696D656E74616CF564736F6C634300050B0040000000 "
    }
  },
  "interface": [
    {
      "constant": true,
      "inputs": [
        {
          "internalType": "bytes32",
          "name": "randomness",
          "type": "bytes32"
        }
      ],
      "name": "getPlayerRolls",
      "outputs": [
        {
          "internalType": "uint8",
          "name": "playerFirstRollOne",
          "type": "uint8"
        },
        {
          "internalType": "uint8",
          "name": "playerFirstRollTwo",
          "type": "uint8"
        },
        {
          "internalType": "uint8",
          "name": "playerSecondRollOne",
          "type": "uint8"
        },
        {
          "internalType": "uint8",
          "name": "playerSecondRollTwo",
          "type": "uint8"
        }
      ],
      "payable": false,
      "stateMutability": "pure",
      "type": "function"
    },
    {
      "constant": true,
      "inputs": [
        {
          "internalType": "bytes",
          "name": "encodedState",
          "type": "bytes"
        },
        {
          "internalType": "bytes",
          "name": "encodedAction",
          "type": "bytes"
        }
      ],
      "name": "applyAction",
      "outputs": [
        {
          "internalType": "bytes",
          "name": "",
          "type": "bytes"
        }
      ],
      "payable": false,
      "stateMutability": "pure",
      "type": "function"
    },
    {
      "constant": true,
      "inputs": [
        {
          "internalType": "bytes",
          "name": "encodedState",
          "type": "bytes"
        }
      ],
      "name": "isStateTerminal",
      "outputs": [
        {
          "internalType": "bool",
          "name": "",
          "type": "bool"
        }
      ],
      "payable": false,
      "stateMutability": "pure",
      "type": "function"
    },
    {
      "constant": true,
      "inputs": [
        {
          "internalType": "bytes",
          "name": "encodedState",
          "type": "bytes"
        }
      ],
      "name": "computeOutcome",
      "outputs": [
        {
          "internalType": "bytes",
          "name": "",
          "type": "bytes"
        }
      ],
      "payable": false,
      "stateMutability": "pure",
      "type": "function"
    },
    {
      "constant": true,
      "inputs": [
        {
          "internalType": "bytes32",
          "name": "randomness",
          "type": "bytes32"
        }
      ],
      "name": "highRoller",
      "outputs": [
        {
          "internalType": "uint8",
          "name": "playerFirstTotal",
          "type": "uint8"
        },
        {
          "internalType": "uint8",
          "name": "playerSecondTotal",
          "type": "uint8"
        }
      ],
      "payable": false,
      "stateMutability": "pure",
      "type": "function"
    },
    {
      "constant": true,
      "inputs": [
        {
          "internalType": "bytes",
          "name": "encodedState",
          "type": "bytes"
        },
        {
          "internalType": "address[]",
          "name": "participants",
          "type": "address[]"
        }
      ],
      "name": "getTurnTaker",
      "outputs": [
        {
          "internalType": "address",
          "name": "",
          "type": "address"
        }
      ],
      "payable": false,
      "stateMutability": "pure",
      "type": "function"
    }
  ]
}